:100000000C9464000C948C000C948C000C948C0068
:100010000C948C000C948C000C948C000C94E702D3
:100020000C948C000C948C000C948C000C948C0020
:100030000C948C000C948C000C948C000C948C0010
:100040000C949D020C948C000C948F030C94690307
:100050000C948C000C948C000C948C000C948C00F0
:100060000C948C000C948C000200000000230026ED
:10007000002900000000080002010000030407003E
:100080000000000000000000000000250028002BF8
:100090000000000000240027002A000404040404D7
:1000A0000404040202020202020303030303030125
:1000B00002040810204080010204081020010204FC
:1000C000081020003004C60311241FBECFEFD8E073
:1000D000DEBFCDBF22E0ACE3B1E001C01D92A93389
:1000E000B207E1F711E0A0E0B1E0ECEAF3E102C011
:1000F00005900D92AC33B107D9F710E0C3E6D0E01C
:1001000004C02197FE010E94BE07C236D107C9F77D
:100110000E94AC040C94C9090C9400002FB7F89409
:100120006091520170915301809154019091550159
:100130002FBF089590E0FC01E155FF4F2491FC0191
:10014000E556FF4F8491882399F090E0880F991F1E
:10015000FC01EF56FF4FA591B491FC01E957FF4F09
:10016000859194918FB7F894EC91E22BEC938FBF2B
:100170000895833081F028F4813099F08230A1F025
:1001800008958730A9F08830B9F08430D1F4809197
:1001900080008F7D03C0809180008F7780938000E6
:1001A000089584B58F7702C084B58F7D84BD08958E
:1001B0008091B0008F7703C08091B0008F7D8093D5
:1001C000B00008951F93CF93DF93282F30E0F901FB
:1001D000ED58FF4F8491F901E155FF4FD491F9019A
:1001E000E556FF4FC491CC23C1F0162F81110E9418
:1001F000B900EC2FF0E0EE0FFF1FE957FF4FA5917C
:10020000B4919FB7F894111104C08C91D095D82364
:1002100002C0EC91DE2BDC939FBFDF91CF911F9149
:100220000895CF92DF92EF92FF920F931F93CF9397
:10023000DF936C017A018B01C0E0D0E0CE15DF05C1
:1002400081F0D8016D918D01D601ED91FC91019065
:10025000F081E02DC6010995892B11F02196EECF92
:100260007E01C701DF91CF911F910F91FF90EF9019
:10027000DF90CF900895089580E090E00895FC010C
:10028000538D448D252F30E0842F90E0821B930BFB
:10029000541710F0CF96089501970895FC01918DA1
:1002A000828D981761F0828DDF01A80FB11D5D96D8
:1002B0008C91928D9F5F9F73928F90E008958FEF46
:1002C0009FEF0895FC01918D828D981731F0828DFA
:1002D000E80FF11D858D90E008958FEF9FEF089551
:1002E000FC01918D228D892F90E0805C9F4F821BB5
:1002F00091098F739927089586E591E00E94700116
:1003000021E0892B09F420E0822F0895FC01848DDF
:10031000DF01A80FB11DA35ABF4F2C91848D90E02F
:1003200001968F739927848FA689B7892C93A0890A
:10033000B1898C91837080648C93938D848D981394
:1003400006C00288F389E02D80818F7D8083089527
:10035000EF92FF920F931F93CF93DF93EC0181E015
:10036000888F9B8D8C8D981305C0E889F9898081D1
:1003700085FD26C0F62E0B8D10E00F5F1F4F0F730B
:100380001127E02E8C8DE8120CC00FB607FCFACFB7
:10039000E889F989808185FFF5CFCE010E94860129
:1003A000F1CF8B8DFE01E80FF11DE35AFF4FF08274
:1003B0009FB7F8940B8FEA89FB89808180620AC01D
:1003C0009FB7F894EE89FF896083E889F989808175
:1003D0008370806480839FBF81E090E0DF91CF9144
:1003E0001F910F91FF90EF900895CF93DF93EC0151
:1003F000888D8823C9F0EA89FB89808185FD05C045
:10040000A889B9898C9186FD0FC00FB607FCF5CF7E
:10041000808185FFF2CFA889B9898C9185FFEDCFC6
:10042000CE010E948601E7CFDF91CF91089580E051
:1004300090E0892B29F00E947C0181110C9400002E
:100440000895CF93DF93EC01E881F98109952A8122
:100450003B81CB01821B930BDF91CF910895CF930A
:10046000DF93EC01E881F98109957B836A83DF9151
:10047000CF91089569E586E591E00C94A80120915B
:10048000030230910402DC0114964D915C911597A2
:100490002417350721F5E091FF01F09100026D91DD
:1004A0007C91309719F06115710599F4611571050A
:1004B00049F0232BB1F0FB01808190E0919581956B
:1004C00091090AC0309769F0232B59F0808190E0A0
:1004D00003C0CF010E94B90921E0892B19F020E067
:1004E00001C021E0822F08950E94AB090F931F9352
:1004F000CF93DF93EC0188819981009729F02A81BD
:100500003B812617370788F48B016F5F7F4F0E946E
:10051000E508009761F0998388831B830A832C8107
:100520003D81232B11F4FC01108281E001C080E0A9
:10053000DF91CF911F910F9108951F920F920FB6E7
:100540000F9211242F933F938F939F93AF93BF9359
:100550008091520190915301A0915401B0915501A5
:100560003091510123E0230F2D3720F40196A11D76
:10057000B11D05C026E8230F0296A11DB11D2093D1
:1005800051018093520190935301A0935401B09371
:10059000550180914D0190914E01A0914F01B09174
:1005A00050010196A11DB11D80934D0190934E0104
:1005B000A0934F01B0935001BF91AF919F918F9144
:1005C0003F912F910F900FBE0F901F9018951F9283
:1005D0000F920FB60F9211242F933F934F935F9377
:1005E0006F937F938F939F93AF93BF93EF93FF93FB
:1005F0008091410190914201A0914301B091440149
:10060000892B8A2B8B2B59F190913C01E0913D0174
:10061000F0913E01808189278083809141019091F2
:100620004201A0914301B0914401181619061A061F
:100630001B060CF03DC08091410190914201A091B8
:100640004301B09144010197A109B109809341018F
:1006500090934201A0934301B093440129C080913B
:100660000001E8E6F0E0E4919FEF90930001E130B3
:10067000B9F098F0E230C9F4909170009D7F9093AA
:10068000700091E09093B0009091B100987F9460D9
:100690009093B1001092B30008C010926E0005C094
:1006A00090916F009D7F90936F0060E00E94E20048
:1006B000FF91EF91BF91AF919F918F917F916F913A
:1006C0005F914F913F912F910F900FBE0F901F9010
:1006D00018951F920F920FB60F9211242F933F93EC
:1006E0004F935F936F937F938F939F93AF93BF933A
:1006F000EF93FF9386E591E00E948601FF91EF91D1
:10070000BF91AF919F918F917F916F915F914F9129
:100710003F912F910F900FBE0F901F9018951F9231
:100720000F920FB60F9211242F938F939F93EF93F5
:10073000FF93E0916601F09167018081E0916C0187
:10074000F0916D0182FD12C0908180916F018F5FE9
:100750008F7320917001821751F0E0916F01F0E0EA
:10076000EA5AFE4F958F80936F0101C08081FF91FF
:10077000EF919F918F912F910F900FBE0F901F902F
:100780001895FC01808191810C945C088091F7019F
:100790009091F8010E945C088FEF91E00E94C103E4
:1007A00085E092E00E94C1038BE092E00E94C103C9
:1007B00081E192E00E94C10387E192E00E94C103BF
:1007C0008DE192E00E94C10383E292E00E94C103A6
:1007D00089E292E00E94C1038FE292E00C94C1038F
:1007E000EF92FF920F931F93CF93DF93EC01198247
:1007F00018821B821A821D821C826115710549F1C3
:100800008B01FB0101900020E9F731977F01E61A87
:10081000F70AB7010E9476022881398181110DC043
:100820002115310519F0C9010E945C08198218824E
:100830001D821C821B821A820CC0FD82EC82B801D0
:10084000C901DF91CF911F910F91FF90EF900C9410
:10085000C209DF91CF911F910F91FF90EF90089502
:10086000CF93DF93E6E5F1E01382128288EE93E006
:10087000A0E0B0E084839583A683B7838EE091E007
:100880009183808385EC90E09587848784EC90E069
:100890009787868780EC90E0918B808B81EC90E04D
:1008A000938B828B82EC90E0958B848B86EC90E02E
:1008B000978B868B118E128E138E148E6CE171E0E5
:1008C0008FE292E00E94F00360E271E089E292E040
:1008D0000E94F00364E271E083E292E00E94F00380
:1008E00068E271E08DE192E00E94F0036CE271E059
:1008F00087E192E00E94F00360E371E081E192E021
:100900000E94F00364E371E08BE092E00E94F00348
:1009100068E371E085E092E00E94F0036FE171E02E
:100920008FEF91E00E94F003CEE8D0E0D093FC017D
:10093000C093FB0184E090E00E94C407FC01D183D6
:10094000C0839093F8018093F701D093F401C09392
:10095000F301DF91CF910895CF93DF9300D0CDB70E
:10096000DEB7789484B5826084BD84B5816084BD2F
:1009700085B5826085BD85B5816085BD80916E003D
:10098000816080936E00109281008091810082606E
:1009900080938100809181008160809381008091AB
:1009A00080008160809380008091B100846080939A
:1009B000B1008091B00081608093B00080917A0096
:1009C000846080937A0080917A00826080937A00BC
:1009D00080917A00816080937A0080917A008068AB
:1009E00080937A001092C100E0916601F091670156
:1009F00082E08083E0916201F09163011082E091D6
:100A00006401F09165018FEC808310926E01E0919A
:100A10006A01F0916B0186E08083E0916801F091BA
:100A20006901808180618083E0916801F0916901B2
:100A3000808188608083E0916801F0916901808104
:100A400080688083E0916801F091690180818F7DE9
:100A5000808382E390E0A0E0B0E080935A0190931D
:100A60005B01A0935C01B0935D018DE00E949A0050
:100A700086E00E949A0088E00E949A0085E00E9429
:100A80009A0060E088E00E94E20060E085E00E9459
:100A9000E20060E086E00E94E20060E08DE00E94FB
:100AA000E2008BEF91E00E942F021092FA01109267
:100AB000F9018091F7019091F8010E942F0283EFD4
:100AC00091E00E942F0242E0242E312C50E2452E6C
:100AD000512C612C712C6FEB862E6BE3962E78E6F1
:100AE000A72E70E0B72EE1EAEE2EE0E0FE2EF5EB49
:100AF000CF2EF0E0DF2E8091F7019091F8010E9457
:100B00002102893E93407CF08091F7019091F80199
:100B10000E942F028091F9019091FA010196909321
:100B2000FA018093F9018091010190910201892BD2
:100B300071F48091F9019091FA010B9744F0309291
:100B400002012092010160E088E00E94E2008BEF48
:100B500091E00E942102893E93400CF4D7C08BEFB4
:100B600091E00E942F02E0E8F0E08491ECEBF0E0ED
:100B70000491E8EAF0E014911123A1F081110E94A0
:100B8000B900E12FF0E0EE0FFF1FE759FF4FA591ED
:100B9000B4918C91082391E080E009F490E0692FF2
:100BA000782F02C060E070E0F1E06F278DE00E94D6
:100BB000E20080910001863021F08F3F09F0A6C04D
:100BC00003C0F50114916BC086E080930001F5012C
:100BD00014911F3F09F49AC0113009F440C038F154
:100BE000123009F05CC01092B0001092B1008091F8
:100BF000B00082608093B0008091B10081608093EA
:100C0000B100F7018491E82FF0E0EE0FFF1FE957E4
:100C1000FF4F8591949190933E0180933D01F601A1
:100C2000849180933C0186E00E949A0040C114BCEC
:100C300015BC84B5826084BD85B5816085BDF70132
:100C40008491E82FF0E0EE0FFF1FE957FF4F8591E9
:100C50009491F60184918093400110E022C010929B
:100C600080001092810080918100886080938100D3
:100C700080918100816080938100F7018491E82F49
:100C8000F0E0EE0FFF1FE957FF4F85919491F601B9
:100C9000849180933F0186E00E949A000DC017FD69
:100CA00035C086E00E949A00112309F4ECC012308E
:100CB00009F4FDC01130C1F480918100887F81600A
:100CC0008093810090928900809288004092450133
:100CD00050924601609247017092480180916F00E6
:100CE000826080936F0012C0123081F48FEB80938A
:100CF000B3004092410150924201609243017092D0
:100D000044018091700082608093700086E591E0DC
:100D10000E947001892B09F4B3C060E070E08FEF8E
:100D200091E00E9476022091FF0130910002811132
:100D300013C02115310519F0C9010E945C081092F9
:100D400000021092FF01109204021092030210920E
:100D500002021092010209C01092040210920302D2
:100D60006FE171E0C9010E94C20980910302909174
:100D70000402039790F483EF91E00E942F0286E52E
:100D800091E00E947001892B09F099C083EF91E0F6
:100D90000E9421020B979CF373C08FE292E00E94A5
:100DA0003F02882349F069E586E591E00E94A801A9
:100DB00081E08093030164C089E292E00E943F02D7
:100DC000882331F169E586E591E00E94A8018091D0
:100DD0000301882309F454C080910101909102011C
:100DE000029709F04DC01092030110920201109277
:100DF00001011092FA011092F9018091F70190918E
:100E0000F8010E942F0261E088E00E94E20038C0F1
:100E100083E292E00E943F02882319F00E943A0286
:100E20002FC08DE192E00E943F02882319F00E94BA
:100E30003A0226C087E192E00E943F02882319F01F
:100E40000E943A021DC081E192E00E943F02882385
:100E500019F00E943A0214C08BE092E00E943F0217
:100E6000882319F00E943A020BC085E092E00E94AC
:100E70003F02882319F00E943A0202C00E943A02FF
:100E80000E94170238CE85B5887F836085BD8EEEBF
:100E900087BD4092490150924A0160924B01709285
:100EA0004C0180916E00826080936E002FCF809104
:100EB000B100887F84608093B1008EEE18CF86E504
:100EC00091E00E944E0189831A82009103021091E1
:100ED00004020F5F1F4FB8018FEF91E00E9476026E
:100EE000882309F442CF2091FF01309100028091C4
:100EF000030290910402BE016F5F7F4F820F931F28
:100F00000E94C20910930402009303022ECF2F9275
:100F10003F924F925F926F927F928F929F92AF9289
:100F2000BF92CF92DF92EF92FF920F931F93CF93D6
:100F3000DF93CDB7DEB7CA1BDB0B0FB6F894DEBF6D
:100F40000FBECDBF09942A88398848885F846E8493
:100F50007D848C849B84AA84B984C884DF80EE80DD
:100F6000FD800C811B81AA81B981CE0FD11D0FB6E6
:100F7000F894DEBF0FBECDBFED010895EE0FFF1F49
:100F80000590F491E02D09940F931F93CF93DF9375
:100F90008230910510F482E090E0E0913702F09108
:100FA000380220E030E0A0E0B0E0309719F1408155
:100FB00051810281138148175907C8F0841795079A
:100FC00069F4109731F012960C93129713961C93B4
:100FD00027C0009337021093380222C02115310533
:100FE00019F04217530718F49A01BD01EF01DF0110
:100FF000F801DBCF21153105F9F0281B390B24301E
:10100000310580F48A819B816115710521F0FB0116
:101010009383828304C09093380280933702FE0149
:10102000329644C0FE01E20FF31F81939193225048
:101030003109398328833AC0209135023091360234
:10104000232B41F4209106013091070130933602A1
:1010500020933502209104013091050121153105BD
:1010600041F42DB73EB74091080150910901241B6E
:10107000350BE0913502F0913602E217F307A0F448
:101080002E1B3F0B2817390778F0AC014E5F5F4FDE
:101090002417350748F04E0F5F1F509336024093D8
:1010A00035028193919302C0E0E0F0E0CF01DF913F
:1010B000CF911F910F910895CF93DF93009709F47B
:1010C00081C0FC01329713821282A0913702B09145
:1010D0003802109781F420813181820F931F209173
:1010E0003502309136022817390751F5F093360250
:1010F000E093350267C0ED0120E030E0CE17DF0756
:1011000040F44A815B819E0141155105F1F0EA01ED
:10111000F5CFD383C28340815181840F951FC817B7
:10112000D90759F488819981840F951F029691837C
:1011300080838A819B81938382832115310529F4E1
:10114000F0933802E09337023DC0E901FB83EA8364
:1011500049915991C40FD51FEC17FD0761F48081A7
:101160009181840F951F0296E9019983888382817A
:1011700093819B838A83E0E0F0E012968D919C91AD
:101180001397009719F0FD01DC01F7CF8D919C9129
:1011900011979D012E5F3F4F820F931F20913502C3
:1011A000309136022817390769F4309729F41092E4
:1011B00038021092370202C013821282B0933602B4
:1011C000A0933502DF91CF910895A0E0B0E0EBEE5F
:1011D000F8E00C948B07EC01009721F4CB010E94FE
:1011E000C407B4C0FC01E60FF71F9C01225031096F
:1011F000E217F30708F4A8C0D9010D911C911197CB
:1012000006171707B0F00530110508F49BC0C80198
:1012100004978617970708F495C002501109061B1A
:10122000170B019311936D937C93CF010E945C087F
:1012300089C05B01A01AB10A4C01800E911EA091D9
:101240003702B0913802612C712CE12CF12C1097EF
:1012500009F446C08D919C911197A815B905B1F577
:101260006C0142E0C40ED11CCA14DB0478F14C01BD
:101270008A189B08640142E0C40ED11C1296BC90EF
:1012800012971396AC91B5E0CB16D10440F0B28220
:10129000A38391828082D9016D937C9309C00E5FF4
:1012A0001F4F800F911FF90191838083EB2DFA2F3F
:1012B000E114F10431F0D7011396FC93EE931297E9
:1012C00041C0F0933802E09337023CC068167906BB
:1012D00008F43C017D0112960D90BC91A02DB7CF72
:1012E000809135029091360288169906E1F46616CF
:1012F0007706C8F48091040190910501009741F4AC
:101300008DB79EB74091080150910901841B950B40
:10131000E817F907C8F4F0933602E0933502F901B3
:10132000718360830FC0CB010E94C4077C010097CA
:1013300059F0A801BE010E94B009CE010E945C08CC
:10134000C70104C0CE0102C080E090E0CDB7DEB797
:10135000EEE00C94A70781E090E0F8940C94C909A2
:10136000FB01DC0102C001900D9241505040D8F7C2
:101370000895FB01DC018D91019080190110D9F3D2
:10138000990B0895FB01DC0101900D920020E1F71B
:10139000089510E0C3E6D0E004C0FE010E94BE073D
:0C13A0002196C436D107C9F7F894FFCF9E
:1013AC00FF02000100003902800000000000A801CB
:1013BC0011013F01F50170014E01620141424300F0
:1013CC0044454600474849004A4B4C004D4E4F009F
:0C13DC0050515200535455005657580011
:00000001FF
